


ARM Macro Assembler    Page 1 


    1 00000000         ; Copyright (c) 2009-2017 ARM Limited. All rights reserv
                       ed.
    2 00000000         ; 
    3 00000000         ;     SPDX-License-Identifier: Apache-2.0
    4 00000000         ; 
    5 00000000         ; Licensed under the Apache License, Version 2.0 (the Li
                       cense); you may
    6 00000000         ; not use this file except in compliance with the Licens
                       e.
    7 00000000         ; You may obtain a copy of the License at
    8 00000000         ; 
    9 00000000         ;     www.apache.org/licenses/LICENSE-2.0
   10 00000000         ; 
   11 00000000         ; Unless required by applicable law or agreed to in writ
                       ing, software
   12 00000000         ; distributed under the License is distributed on an AS 
                       IS BASIS, WITHOUT
   13 00000000         ; WARRANTIES OR CONDITIONS OF ANY KIND, either express o
                       r implied.
   14 00000000         ; See the License for the specific language governing pe
                       rmissions and
   15 00000000         ; limitations under the License.
   16 00000000         ; 
   17 00000000         ; NOTICE: This file has been modified by Nordic Semicond
                       uctor ASA.
   18 00000000         
   19 00000000                 IF               :DEF: __STARTUP_CONFIG
   24                          ENDIF
   25 00000000         
   26 00000000                 IF               :DEF: __STARTUP_CONFIG
   31 00000000 00002000 
                       Stack_Size
                               EQU              8192
   32 00000000                 ENDIF
   33 00000000         
   34 00000000                 IF               :DEF: __STARTUP_CONFIG
   37 00000000 00000003 
                       Stack_Align
                               EQU              3
   38 00000000                 ENDIF
   39 00000000         
   40 00000000                 AREA             STACK, NOINIT, READWRITE, ALIGN
=Stack_Align
   41 00000000         Stack_Mem
                               SPACE            Stack_Size
   42 00002000         __initial_sp
   43 00002000         
   44 00002000                 IF               :DEF: __STARTUP_CONFIG
   49 00002000 00002000 
                       Heap_Size
                               EQU              8192
   50 00002000                 ENDIF
   51 00002000         
   52 00002000                 AREA             HEAP, NOINIT, READWRITE, ALIGN=
3
   53 00000000         __heap_base
   54 00000000         Heap_Mem
                               SPACE            Heap_Size
   55 00002000         __heap_limit



ARM Macro Assembler    Page 2 


   56 00002000         
   57 00002000                 PRESERVE8
   58 00002000                 THUMB
   59 00002000         
   60 00002000         ; Vector Table Mapped to Address 0 at Reset
   61 00002000         
   62 00002000                 AREA             RESET, DATA, READONLY
   63 00000000                 EXPORT           __Vectors
   64 00000000                 EXPORT           __Vectors_End
   65 00000000                 EXPORT           __Vectors_Size
   66 00000000         
   67 00000000 00000000 
                       __Vectors
                               DCD              __initial_sp ; Top of Stack
   68 00000004 00000000        DCD              Reset_Handler
   69 00000008 00000000        DCD              NMI_Handler
   70 0000000C 00000000        DCD              HardFault_Handler
   71 00000010 00000000        DCD              MemoryManagement_Handler
   72 00000014 00000000        DCD              BusFault_Handler
   73 00000018 00000000        DCD              UsageFault_Handler
   74 0000001C 00000000        DCD              0           ; Reserved
   75 00000020 00000000        DCD              0           ; Reserved
   76 00000024 00000000        DCD              0           ; Reserved
   77 00000028 00000000        DCD              0           ; Reserved
   78 0000002C 00000000        DCD              SVC_Handler
   79 00000030 00000000        DCD              DebugMon_Handler
   80 00000034 00000000        DCD              0           ; Reserved
   81 00000038 00000000        DCD              PendSV_Handler
   82 0000003C 00000000        DCD              SysTick_Handler
   83 00000040         
   84 00000040         ; External Interrupts
   85 00000040 00000000        DCD              POWER_CLOCK_IRQHandler
   86 00000044 00000000        DCD              RADIO_IRQHandler
   87 00000048 00000000        DCD              UARTE0_UART0_IRQHandler
   88 0000004C 00000000        DCD              SPIM0_SPIS0_TWIM0_TWIS0_SPI0_TW
I0_IRQHandler
   89 00000050 00000000        DCD              SPIM1_SPIS1_TWIM1_TWIS1_SPI1_TW
I1_IRQHandler
   90 00000054 00000000        DCD              NFCT_IRQHandler
   91 00000058 00000000        DCD              GPIOTE_IRQHandler
   92 0000005C 00000000        DCD              SAADC_IRQHandler
   93 00000060 00000000        DCD              TIMER0_IRQHandler
   94 00000064 00000000        DCD              TIMER1_IRQHandler
   95 00000068 00000000        DCD              TIMER2_IRQHandler
   96 0000006C 00000000        DCD              RTC0_IRQHandler
   97 00000070 00000000        DCD              TEMP_IRQHandler
   98 00000074 00000000        DCD              RNG_IRQHandler
   99 00000078 00000000        DCD              ECB_IRQHandler
  100 0000007C 00000000        DCD              CCM_AAR_IRQHandler
  101 00000080 00000000        DCD              WDT_IRQHandler
  102 00000084 00000000        DCD              RTC1_IRQHandler
  103 00000088 00000000        DCD              QDEC_IRQHandler
  104 0000008C 00000000        DCD              COMP_LPCOMP_IRQHandler
  105 00000090 00000000        DCD              SWI0_EGU0_IRQHandler
  106 00000094 00000000        DCD              SWI1_EGU1_IRQHandler
  107 00000098 00000000        DCD              SWI2_EGU2_IRQHandler
  108 0000009C 00000000        DCD              SWI3_EGU3_IRQHandler
  109 000000A0 00000000        DCD              SWI4_EGU4_IRQHandler
  110 000000A4 00000000        DCD              SWI5_EGU5_IRQHandler



ARM Macro Assembler    Page 3 


  111 000000A8 00000000        DCD              TIMER3_IRQHandler
  112 000000AC 00000000        DCD              TIMER4_IRQHandler
  113 000000B0 00000000        DCD              PWM0_IRQHandler
  114 000000B4 00000000        DCD              PDM_IRQHandler
  115 000000B8 00000000        DCD              0           ; Reserved
  116 000000BC 00000000        DCD              0           ; Reserved
  117 000000C0 00000000        DCD              MWU_IRQHandler
  118 000000C4 00000000        DCD              PWM1_IRQHandler
  119 000000C8 00000000        DCD              PWM2_IRQHandler
  120 000000CC 00000000        DCD              SPIM2_SPIS2_SPI2_IRQHandler
  121 000000D0 00000000        DCD              RTC2_IRQHandler
  122 000000D4 00000000        DCD              I2S_IRQHandler
  123 000000D8 00000000        DCD              FPU_IRQHandler
  124 000000DC 00000000        DCD              0           ; Reserved
  125 000000E0 00000000        DCD              0           ; Reserved
  126 000000E4 00000000        DCD              0           ; Reserved
  127 000000E8 00000000        DCD              0           ; Reserved
  128 000000EC 00000000        DCD              0           ; Reserved
  129 000000F0 00000000        DCD              0           ; Reserved
  130 000000F4 00000000        DCD              0           ; Reserved
  131 000000F8 00000000        DCD              0           ; Reserved
  132 000000FC 00000000        DCD              0           ; Reserved
  133 00000100 00000000        DCD              0           ; Reserved
  134 00000104 00000000        DCD              0           ; Reserved
  135 00000108 00000000        DCD              0           ; Reserved
  136 0000010C 00000000        DCD              0           ; Reserved
  137 00000110 00000000        DCD              0           ; Reserved
  138 00000114 00000000        DCD              0           ; Reserved
  139 00000118 00000000        DCD              0           ; Reserved
  140 0000011C 00000000        DCD              0           ; Reserved
  141 00000120 00000000        DCD              0           ; Reserved
  142 00000124 00000000        DCD              0           ; Reserved
  143 00000128 00000000        DCD              0           ; Reserved
  144 0000012C 00000000        DCD              0           ; Reserved
  145 00000130 00000000        DCD              0           ; Reserved
  146 00000134 00000000        DCD              0           ; Reserved
  147 00000138 00000000        DCD              0           ; Reserved
  148 0000013C 00000000        DCD              0           ; Reserved
  149 00000140 00000000        DCD              0           ; Reserved
  150 00000144 00000000        DCD              0           ; Reserved
  151 00000148 00000000        DCD              0           ; Reserved
  152 0000014C 00000000        DCD              0           ; Reserved
  153 00000150 00000000        DCD              0           ; Reserved
  154 00000154 00000000        DCD              0           ; Reserved
  155 00000158 00000000        DCD              0           ; Reserved
  156 0000015C 00000000        DCD              0           ; Reserved
  157 00000160 00000000        DCD              0           ; Reserved
  158 00000164 00000000        DCD              0           ; Reserved
  159 00000168 00000000        DCD              0           ; Reserved
  160 0000016C 00000000        DCD              0           ; Reserved
  161 00000170 00000000        DCD              0           ; Reserved
  162 00000174 00000000        DCD              0           ; Reserved
  163 00000178 00000000        DCD              0           ; Reserved
  164 0000017C 00000000        DCD              0           ; Reserved
  165 00000180 00000000        DCD              0           ; Reserved
  166 00000184 00000000        DCD              0           ; Reserved
  167 00000188 00000000        DCD              0           ; Reserved
  168 0000018C 00000000        DCD              0           ; Reserved
  169 00000190 00000000        DCD              0           ; Reserved



ARM Macro Assembler    Page 4 


  170 00000194 00000000        DCD              0           ; Reserved
  171 00000198 00000000        DCD              0           ; Reserved
  172 0000019C 00000000        DCD              0           ; Reserved
  173 000001A0 00000000        DCD              0           ; Reserved
  174 000001A4 00000000        DCD              0           ; Reserved
  175 000001A8 00000000        DCD              0           ; Reserved
  176 000001AC 00000000        DCD              0           ; Reserved
  177 000001B0 00000000        DCD              0           ; Reserved
  178 000001B4 00000000        DCD              0           ; Reserved
  179 000001B8 00000000        DCD              0           ; Reserved
  180 000001BC 00000000        DCD              0           ; Reserved
  181 000001C0 00000000        DCD              0           ; Reserved
  182 000001C4 00000000        DCD              0           ; Reserved
  183 000001C8 00000000        DCD              0           ; Reserved
  184 000001CC 00000000        DCD              0           ; Reserved
  185 000001D0 00000000        DCD              0           ; Reserved
  186 000001D4 00000000        DCD              0           ; Reserved
  187 000001D8 00000000        DCD              0           ; Reserved
  188 000001DC 00000000        DCD              0           ; Reserved
  189 000001E0 00000000        DCD              0           ; Reserved
  190 000001E4 00000000        DCD              0           ; Reserved
  191 000001E8 00000000        DCD              0           ; Reserved
  192 000001EC 00000000        DCD              0           ; Reserved
  193 000001F0 00000000        DCD              0           ; Reserved
  194 000001F4 00000000        DCD              0           ; Reserved
  195 000001F8 00000000        DCD              0           ; Reserved
  196 000001FC 00000000        DCD              0           ; Reserved
  197 00000200         
  198 00000200         __Vectors_End
  199 00000200         
  200 00000200 00000200 
                       __Vectors_Size
                               EQU              __Vectors_End - __Vectors
  201 00000200         
  202 00000200                 AREA             |.text|, CODE, READONLY
  203 00000000         
  204 00000000         ; Reset Handler
  205 00000000         
  206 00000000         
  207 00000000         Reset_Handler
                               PROC
  208 00000000                 EXPORT           Reset_Handler             [WEAK
]
  209 00000000                 IMPORT           SystemInit
  210 00000000                 IMPORT           __main
  211 00000000         
  212 00000000         
  213 00000000 4806            LDR              R0, =SystemInit
  214 00000002 4780            BLX              R0
  215 00000004 4806            LDR              R0, =__main
  216 00000006 4700            BX               R0
  217 00000008                 ENDP
  218 00000008         
  219 00000008         ; Dummy Exception Handlers (infinite loops which can be 
                       modified)
  220 00000008         
  221 00000008         NMI_Handler
                               PROC
  222 00000008                 EXPORT           NMI_Handler               [WEAK



ARM Macro Assembler    Page 5 


]
  223 00000008 E7FE            B                .
  224 0000000A                 ENDP
  226 0000000A         HardFault_Handler
                               PROC
  227 0000000A                 EXPORT           HardFault_Handler         [WEAK
]
  228 0000000A E7FE            B                .
  229 0000000C                 ENDP
  231 0000000C         MemoryManagement_Handler
                               PROC
  232 0000000C                 EXPORT           MemoryManagement_Handler  [WEAK
]
  233 0000000C E7FE            B                .
  234 0000000E                 ENDP
  236 0000000E         BusFault_Handler
                               PROC
  237 0000000E                 EXPORT           BusFault_Handler          [WEAK
]
  238 0000000E E7FE            B                .
  239 00000010                 ENDP
  241 00000010         UsageFault_Handler
                               PROC
  242 00000010                 EXPORT           UsageFault_Handler        [WEAK
]
  243 00000010 E7FE            B                .
  244 00000012                 ENDP
  245 00000012         SVC_Handler
                               PROC
  246 00000012                 EXPORT           SVC_Handler               [WEAK
]
  247 00000012 E7FE            B                .
  248 00000014                 ENDP
  250 00000014         DebugMon_Handler
                               PROC
  251 00000014                 EXPORT           DebugMon_Handler          [WEAK
]
  252 00000014 E7FE            B                .
  253 00000016                 ENDP
  254 00000016         PendSV_Handler
                               PROC
  255 00000016                 EXPORT           PendSV_Handler            [WEAK
]
  256 00000016 E7FE            B                .
  257 00000018                 ENDP
  258 00000018         SysTick_Handler
                               PROC
  259 00000018                 EXPORT           SysTick_Handler           [WEAK
]
  260 00000018 E7FE            B                .
  261 0000001A                 ENDP
  262 0000001A         
  263 0000001A         Default_Handler
                               PROC
  264 0000001A         
  265 0000001A                 EXPORT           POWER_CLOCK_IRQHandler [WEAK]
  266 0000001A                 EXPORT           RADIO_IRQHandler [WEAK]
  267 0000001A                 EXPORT           UARTE0_UART0_IRQHandler [WEAK]
  268 0000001A                 EXPORT           SPIM0_SPIS0_TWIM0_TWIS0_SPI0_TW



ARM Macro Assembler    Page 6 


I0_IRQHandler [WEAK]
  269 0000001A                 EXPORT           SPIM1_SPIS1_TWIM1_TWIS1_SPI1_TW
I1_IRQHandler [WEAK]
  270 0000001A                 EXPORT           NFCT_IRQHandler [WEAK]
  271 0000001A                 EXPORT           GPIOTE_IRQHandler [WEAK]
  272 0000001A                 EXPORT           SAADC_IRQHandler [WEAK]
  273 0000001A                 EXPORT           TIMER0_IRQHandler [WEAK]
  274 0000001A                 EXPORT           TIMER1_IRQHandler [WEAK]
  275 0000001A                 EXPORT           TIMER2_IRQHandler [WEAK]
  276 0000001A                 EXPORT           RTC0_IRQHandler [WEAK]
  277 0000001A                 EXPORT           TEMP_IRQHandler [WEAK]
  278 0000001A                 EXPORT           RNG_IRQHandler [WEAK]
  279 0000001A                 EXPORT           ECB_IRQHandler [WEAK]
  280 0000001A                 EXPORT           CCM_AAR_IRQHandler [WEAK]
  281 0000001A                 EXPORT           WDT_IRQHandler [WEAK]
  282 0000001A                 EXPORT           RTC1_IRQHandler [WEAK]
  283 0000001A                 EXPORT           QDEC_IRQHandler [WEAK]
  284 0000001A                 EXPORT           COMP_LPCOMP_IRQHandler [WEAK]
  285 0000001A                 EXPORT           SWI0_EGU0_IRQHandler [WEAK]
  286 0000001A                 EXPORT           SWI1_EGU1_IRQHandler [WEAK]
  287 0000001A                 EXPORT           SWI2_EGU2_IRQHandler [WEAK]
  288 0000001A                 EXPORT           SWI3_EGU3_IRQHandler [WEAK]
  289 0000001A                 EXPORT           SWI4_EGU4_IRQHandler [WEAK]
  290 0000001A                 EXPORT           SWI5_EGU5_IRQHandler [WEAK]
  291 0000001A                 EXPORT           TIMER3_IRQHandler [WEAK]
  292 0000001A                 EXPORT           TIMER4_IRQHandler [WEAK]
  293 0000001A                 EXPORT           PWM0_IRQHandler [WEAK]
  294 0000001A                 EXPORT           PDM_IRQHandler [WEAK]
  295 0000001A                 EXPORT           MWU_IRQHandler [WEAK]
  296 0000001A                 EXPORT           PWM1_IRQHandler [WEAK]
  297 0000001A                 EXPORT           PWM2_IRQHandler [WEAK]
  298 0000001A                 EXPORT           SPIM2_SPIS2_SPI2_IRQHandler [WE
AK]
  299 0000001A                 EXPORT           RTC2_IRQHandler [WEAK]
  300 0000001A                 EXPORT           I2S_IRQHandler [WEAK]
  301 0000001A                 EXPORT           FPU_IRQHandler [WEAK]
  302 0000001A         POWER_CLOCK_IRQHandler
  303 0000001A         RADIO_IRQHandler
  304 0000001A         UARTE0_UART0_IRQHandler
  305 0000001A         SPIM0_SPIS0_TWIM0_TWIS0_SPI0_TWI0_IRQHandler
  306 0000001A         SPIM1_SPIS1_TWIM1_TWIS1_SPI1_TWI1_IRQHandler
  307 0000001A         NFCT_IRQHandler
  308 0000001A         GPIOTE_IRQHandler
  309 0000001A         SAADC_IRQHandler
  310 0000001A         TIMER0_IRQHandler
  311 0000001A         TIMER1_IRQHandler
  312 0000001A         TIMER2_IRQHandler
  313 0000001A         RTC0_IRQHandler
  314 0000001A         TEMP_IRQHandler
  315 0000001A         RNG_IRQHandler
  316 0000001A         ECB_IRQHandler
  317 0000001A         CCM_AAR_IRQHandler
  318 0000001A         WDT_IRQHandler
  319 0000001A         RTC1_IRQHandler
  320 0000001A         QDEC_IRQHandler
  321 0000001A         COMP_LPCOMP_IRQHandler
  322 0000001A         SWI0_EGU0_IRQHandler
  323 0000001A         SWI1_EGU1_IRQHandler
  324 0000001A         SWI2_EGU2_IRQHandler



ARM Macro Assembler    Page 7 


  325 0000001A         SWI3_EGU3_IRQHandler
  326 0000001A         SWI4_EGU4_IRQHandler
  327 0000001A         SWI5_EGU5_IRQHandler
  328 0000001A         TIMER3_IRQHandler
  329 0000001A         TIMER4_IRQHandler
  330 0000001A         PWM0_IRQHandler
  331 0000001A         PDM_IRQHandler
  332 0000001A         MWU_IRQHandler
  333 0000001A         PWM1_IRQHandler
  334 0000001A         PWM2_IRQHandler
  335 0000001A         SPIM2_SPIS2_SPI2_IRQHandler
  336 0000001A         RTC2_IRQHandler
  337 0000001A         I2S_IRQHandler
  338 0000001A         FPU_IRQHandler
  339 0000001A E7FE            B                .
  340 0000001C                 ENDP
  341 0000001C                 ALIGN
  342 0000001C         
  343 0000001C         ; User Initial Stack & Heap
  344 0000001C         
  345 0000001C                 IF               :DEF:__MICROLIB
  346 0000001C         
  347 0000001C                 EXPORT           __initial_sp
  348 0000001C                 EXPORT           __heap_base
  349 0000001C                 EXPORT           __heap_limit
  350 0000001C         
  351 0000001C                 ELSE
  367                          ENDIF
  368 0000001C         
  369 0000001C                 END
              00000000 
              00000000 
Command Line: --debug --xref --diag_suppress=9931 --cpu=Cortex-M4.fp --apcs=int
erwork --depend=.\_build\arm_startup_nrf52.d -o.\_build\arm_startup_nrf52.o -I.
\RTE\_nrf52832_xxaa_s132 -I.\RTE\nRF_BLE\nRF52832_xxAA -I.\RTE\nRF_Drivers\nRF5
2832_xxAA -I.\RTE\nRF_Libraries\nRF52832_xxAA -IC:\Keil_v5\ARM\PACK\ARM\CMSIS\4
.5.0\CMSIS\Include -IC:\Keil_v5\ARM\PACK\NordicSemiconductor\nRF_BLE\4.0.0-2.al
pha\common -IC:\Keil_v5\ARM\PACK\NordicSemiconductor\nRF_DeviceFamilyPack\8.3.1
\Device\Include -IC:\Keil_v5\ARM\PACK\NordicSemiconductor\nRF_Drivers\4.0.0-2.a
lpha\common -IC:\Keil_v5\ARM\PACK\NordicSemiconductor\nRF_Drivers\4.0.0-2.alpha
\config -IC:\Keil_v5\ARM\PACK\NordicSemiconductor\nRF_Drivers\4.0.0-2.alpha\del
ay -IC:\Keil_v5\ARM\PACK\NordicSemiconductor\nRF_Drivers\4.0.0-2.alpha\gpiote -
IC:\Keil_v5\ARM\PACK\NordicSemiconductor\nRF_Drivers\4.0.0-2.alpha\hal -IC:\Kei
l_v5\ARM\PACK\NordicSemiconductor\nRF_Drivers\4.0.0-2.alpha\uart -IC:\Keil_v5\A
RM\PACK\NordicSemiconductor\nRF_Drivers_External\1.2.1-2.alpha\segger_rtt -IC:\
Keil_v5\ARM\PACK\NordicSemiconductor\nRF_Examples\11.0.0-2.alpha\bsp -IC:\Keil_
v5\ARM\PACK\NordicSemiconductor\nRF_Libraries\4.0.0-2.alpha\button -IC:\Keil_v5
\ARM\PACK\NordicSemiconductor\nRF_Libraries\4.0.0-2.alpha\timer -IC:\Keil_v5\AR
M\PACK\NordicSemiconductor\nRF_Libraries\4.0.0-2.alpha\uart -IC:\Keil_v5\ARM\PA
CK\NordicSemiconductor\nRF_Libraries\4.0.0-2.alpha\util -IC:\Keil_v5\ARM\PACK\N
ordicSemiconductor\nRF_SoftDevice_Common\2.0.0-2.alpha\softdevice_handler -IC:\
Keil_v5\ARM\PACK\NordicSemiconductor\nRF_SoftDevice_S132\2.0.0-7.alpha\headers 
-IC:\Keil_v5\ARM\PACK\NordicSemiconductor\nRF_SoftDevice_S132\2.0.0-7.alpha\hea
ders\nrf52 --predefine="__EVAL SETA 1" --predefine="__MICROLIB SETA 1" --predef
ine="__UVISION_VERSION SETA 524" --predefine="_RTE_ SETA 1" --predefine="NRF52 
SETA 1" --predefine="BLE_STACK_SUPPORT_REQD SETA 1" --predefine="NRF52_PAN_8 SE
TA 1" --predefine="NRF52_PAN_9 SETA 1" --predefine="NRF52_PAN_10 SETA 1" --pred
efine="NRF52_PAN_11 SETA 1" --predefine="NRF52_PAN_12 SETA 1" --predefine="NRF5
2_PAN_15 SETA 1" --predefine="NRF52_PAN_16 SETA 1" --predefine="NRF52_PAN_17 SE



ARM Macro Assembler    Page 8 


TA 1" --predefine="NRF52_PAN_20 SETA 1" --predefine="NRF52_PAN_23 SETA 1" --pre
define="NRF52_PAN_24 SETA 1" --predefine="NRF52_PAN_25 SETA 1" --predefine="NRF
52_PAN_26 SETA 1" --predefine="NRF52_PAN_27 SETA 1" --predefine="NRF52_PAN_28 S
ETA 1" --predefine="NRF52_PAN_29 SETA 1" --predefine="NRF52_PAN_30 SETA 1" --pr
edefine="NRF52_PAN_32 SETA 1" --predefine="NRF52_PAN_33 SETA 1" --predefine="NR
F52_PAN_34 SETA 1" --predefine="NRF52_PAN_35 SETA 1" --predefine="NRF52_PAN_36 
SETA 1" --predefine="NRF52_PAN_37 SETA 1" --predefine="NRF52_PAN_38 SETA 1" --p
redefine="NRF52_PAN_39 SETA 1" --predefine="NRF52_PAN_40 SETA 1" --predefine="N
RF52_PAN_41 SETA 1" --predefine="NRF52_PAN_42 SETA 1" --predefine="NRF52_PAN_43
 SETA 1" --predefine="NRF52_PAN_44 SETA 1" --predefine="NRF52_PAN_46 SETA 1" --
predefine="NRF52_PAN_47 SETA 1" --predefine="NRF52_PAN_48 SETA 1" --predefine="
NRF52_PAN_49 SETA 1" --predefine="NRF52_PAN_58 SETA 1" --predefine="NRF52_PAN_6
3 SETA 1" --predefine="NRF52_PAN_64 SETA 1" --predefine="NRF52_PAN_65 SETA 1" -
-predefine="CONFIG_GPIO_AS_PINRESET SETA 1" --predefine="BOARD_PCA10036 SETA 1"
 --predefine="NRF52_PAN_1 SETA 1" --predefine="NRF52_PAN_2 SETA 1" --predefine=
"NRF52_PAN_3 SETA 1" --predefine="NRF52_PAN_4 SETA 1" --predefine="NRF52_PAN_7 
SETA 1" --predefine="S132 SETA 1" --predefine="NRF_LOG_USES_UART SETA 1" --pred
efine="NRF52 SETA 1" --predefine="SOFTDEVICE_PRESENT SETA 1" --predefine="SWI_D
ISABLE0 SETA 1" --list=.\_build\arm_startup_nrf52.lst RTE\Device\nRF52832_xxAA\
arm_startup_nrf52.s



ARM Macro Assembler    Page 1 Alphabetic symbol ordering
Relocatable symbols

STACK 00000000

Symbol: STACK
   Definitions
      At line 40 in file RTE\Device\nRF52832_xxAA\arm_startup_nrf52.s
   Uses
      None
Comment: STACK unused
Stack_Mem 00000000

Symbol: Stack_Mem
   Definitions
      At line 41 in file RTE\Device\nRF52832_xxAA\arm_startup_nrf52.s
   Uses
      None
Comment: Stack_Mem unused
__initial_sp 00002000

Symbol: __initial_sp
   Definitions
      At line 42 in file RTE\Device\nRF52832_xxAA\arm_startup_nrf52.s
   Uses
      At line 67 in file RTE\Device\nRF52832_xxAA\arm_startup_nrf52.s
      At line 347 in file RTE\Device\nRF52832_xxAA\arm_startup_nrf52.s

3 symbols



ARM Macro Assembler    Page 1 Alphabetic symbol ordering
Relocatable symbols

HEAP 00000000

Symbol: HEAP
   Definitions
      At line 52 in file RTE\Device\nRF52832_xxAA\arm_startup_nrf52.s
   Uses
      None
Comment: HEAP unused
Heap_Mem 00000000

Symbol: Heap_Mem
   Definitions
      At line 54 in file RTE\Device\nRF52832_xxAA\arm_startup_nrf52.s
   Uses
      None
Comment: Heap_Mem unused
__heap_base 00000000

Symbol: __heap_base
   Definitions
      At line 53 in file RTE\Device\nRF52832_xxAA\arm_startup_nrf52.s
   Uses
      At line 348 in file RTE\Device\nRF52832_xxAA\arm_startup_nrf52.s
Comment: __heap_base used once
__heap_limit 00002000

Symbol: __heap_limit
   Definitions
      At line 55 in file RTE\Device\nRF52832_xxAA\arm_startup_nrf52.s
   Uses
      At line 349 in file RTE\Device\nRF52832_xxAA\arm_startup_nrf52.s
Comment: __heap_limit used once
4 symbols



ARM Macro Assembler    Page 1 Alphabetic symbol ordering
Relocatable symbols

RESET 00000000

Symbol: RESET
   Definitions
      At line 62 in file RTE\Device\nRF52832_xxAA\arm_startup_nrf52.s
   Uses
      None
Comment: RESET unused
__Vectors 00000000

Symbol: __Vectors
   Definitions
      At line 67 in file RTE\Device\nRF52832_xxAA\arm_startup_nrf52.s
   Uses
      At line 63 in file RTE\Device\nRF52832_xxAA\arm_startup_nrf52.s
      At line 200 in file RTE\Device\nRF52832_xxAA\arm_startup_nrf52.s

__Vectors_End 00000200

Symbol: __Vectors_End
   Definitions
      At line 198 in file RTE\Device\nRF52832_xxAA\arm_startup_nrf52.s
   Uses
      At line 64 in file RTE\Device\nRF52832_xxAA\arm_startup_nrf52.s
      At line 200 in file RTE\Device\nRF52832_xxAA\arm_startup_nrf52.s

3 symbols



ARM Macro Assembler    Page 1 Alphabetic symbol ordering
Relocatable symbols

.text 00000000

Symbol: .text
   Definitions
      At line 202 in file RTE\Device\nRF52832_xxAA\arm_startup_nrf52.s
   Uses
      None
Comment: .text unused
BusFault_Handler 0000000E

Symbol: BusFault_Handler
   Definitions
      At line 236 in file RTE\Device\nRF52832_xxAA\arm_startup_nrf52.s
   Uses
      At line 72 in file RTE\Device\nRF52832_xxAA\arm_startup_nrf52.s
      At line 237 in file RTE\Device\nRF52832_xxAA\arm_startup_nrf52.s

CCM_AAR_IRQHandler 0000001A

Symbol: CCM_AAR_IRQHandler
   Definitions
      At line 317 in file RTE\Device\nRF52832_xxAA\arm_startup_nrf52.s
   Uses
      At line 100 in file RTE\Device\nRF52832_xxAA\arm_startup_nrf52.s
      At line 280 in file RTE\Device\nRF52832_xxAA\arm_startup_nrf52.s

COMP_LPCOMP_IRQHandler 0000001A

Symbol: COMP_LPCOMP_IRQHandler
   Definitions
      At line 321 in file RTE\Device\nRF52832_xxAA\arm_startup_nrf52.s
   Uses
      At line 104 in file RTE\Device\nRF52832_xxAA\arm_startup_nrf52.s
      At line 284 in file RTE\Device\nRF52832_xxAA\arm_startup_nrf52.s

DebugMon_Handler 00000014

Symbol: DebugMon_Handler
   Definitions
      At line 250 in file RTE\Device\nRF52832_xxAA\arm_startup_nrf52.s
   Uses
      At line 79 in file RTE\Device\nRF52832_xxAA\arm_startup_nrf52.s
      At line 251 in file RTE\Device\nRF52832_xxAA\arm_startup_nrf52.s

Default_Handler 0000001A

Symbol: Default_Handler
   Definitions
      At line 263 in file RTE\Device\nRF52832_xxAA\arm_startup_nrf52.s
   Uses
      None
Comment: Default_Handler unused
ECB_IRQHandler 0000001A

Symbol: ECB_IRQHandler
   Definitions
      At line 316 in file RTE\Device\nRF52832_xxAA\arm_startup_nrf52.s
   Uses
      At line 99 in file RTE\Device\nRF52832_xxAA\arm_startup_nrf52.s



ARM Macro Assembler    Page 2 Alphabetic symbol ordering
Relocatable symbols

      At line 279 in file RTE\Device\nRF52832_xxAA\arm_startup_nrf52.s

FPU_IRQHandler 0000001A

Symbol: FPU_IRQHandler
   Definitions
      At line 338 in file RTE\Device\nRF52832_xxAA\arm_startup_nrf52.s
   Uses
      At line 123 in file RTE\Device\nRF52832_xxAA\arm_startup_nrf52.s
      At line 301 in file RTE\Device\nRF52832_xxAA\arm_startup_nrf52.s

GPIOTE_IRQHandler 0000001A

Symbol: GPIOTE_IRQHandler
   Definitions
      At line 308 in file RTE\Device\nRF52832_xxAA\arm_startup_nrf52.s
   Uses
      At line 91 in file RTE\Device\nRF52832_xxAA\arm_startup_nrf52.s
      At line 271 in file RTE\Device\nRF52832_xxAA\arm_startup_nrf52.s

HardFault_Handler 0000000A

Symbol: HardFault_Handler
   Definitions
      At line 226 in file RTE\Device\nRF52832_xxAA\arm_startup_nrf52.s
   Uses
      At line 70 in file RTE\Device\nRF52832_xxAA\arm_startup_nrf52.s
      At line 227 in file RTE\Device\nRF52832_xxAA\arm_startup_nrf52.s

I2S_IRQHandler 0000001A

Symbol: I2S_IRQHandler
   Definitions
      At line 337 in file RTE\Device\nRF52832_xxAA\arm_startup_nrf52.s
   Uses
      At line 122 in file RTE\Device\nRF52832_xxAA\arm_startup_nrf52.s
      At line 300 in file RTE\Device\nRF52832_xxAA\arm_startup_nrf52.s

MWU_IRQHandler 0000001A

Symbol: MWU_IRQHandler
   Definitions
      At line 332 in file RTE\Device\nRF52832_xxAA\arm_startup_nrf52.s
   Uses
      At line 117 in file RTE\Device\nRF52832_xxAA\arm_startup_nrf52.s
      At line 295 in file RTE\Device\nRF52832_xxAA\arm_startup_nrf52.s

MemoryManagement_Handler 0000000C

Symbol: MemoryManagement_Handler
   Definitions
      At line 231 in file RTE\Device\nRF52832_xxAA\arm_startup_nrf52.s
   Uses
      At line 71 in file RTE\Device\nRF52832_xxAA\arm_startup_nrf52.s
      At line 232 in file RTE\Device\nRF52832_xxAA\arm_startup_nrf52.s

NFCT_IRQHandler 0000001A

Symbol: NFCT_IRQHandler



ARM Macro Assembler    Page 3 Alphabetic symbol ordering
Relocatable symbols

   Definitions
      At line 307 in file RTE\Device\nRF52832_xxAA\arm_startup_nrf52.s
   Uses
      At line 90 in file RTE\Device\nRF52832_xxAA\arm_startup_nrf52.s
      At line 270 in file RTE\Device\nRF52832_xxAA\arm_startup_nrf52.s

NMI_Handler 00000008

Symbol: NMI_Handler
   Definitions
      At line 221 in file RTE\Device\nRF52832_xxAA\arm_startup_nrf52.s
   Uses
      At line 69 in file RTE\Device\nRF52832_xxAA\arm_startup_nrf52.s
      At line 222 in file RTE\Device\nRF52832_xxAA\arm_startup_nrf52.s

PDM_IRQHandler 0000001A

Symbol: PDM_IRQHandler
   Definitions
      At line 331 in file RTE\Device\nRF52832_xxAA\arm_startup_nrf52.s
   Uses
      At line 114 in file RTE\Device\nRF52832_xxAA\arm_startup_nrf52.s
      At line 294 in file RTE\Device\nRF52832_xxAA\arm_startup_nrf52.s

POWER_CLOCK_IRQHandler 0000001A

Symbol: POWER_CLOCK_IRQHandler
   Definitions
      At line 302 in file RTE\Device\nRF52832_xxAA\arm_startup_nrf52.s
   Uses
      At line 85 in file RTE\Device\nRF52832_xxAA\arm_startup_nrf52.s
      At line 265 in file RTE\Device\nRF52832_xxAA\arm_startup_nrf52.s

PWM0_IRQHandler 0000001A

Symbol: PWM0_IRQHandler
   Definitions
      At line 330 in file RTE\Device\nRF52832_xxAA\arm_startup_nrf52.s
   Uses
      At line 113 in file RTE\Device\nRF52832_xxAA\arm_startup_nrf52.s
      At line 293 in file RTE\Device\nRF52832_xxAA\arm_startup_nrf52.s

PWM1_IRQHandler 0000001A

Symbol: PWM1_IRQHandler
   Definitions
      At line 333 in file RTE\Device\nRF52832_xxAA\arm_startup_nrf52.s
   Uses
      At line 118 in file RTE\Device\nRF52832_xxAA\arm_startup_nrf52.s
      At line 296 in file RTE\Device\nRF52832_xxAA\arm_startup_nrf52.s

PWM2_IRQHandler 0000001A

Symbol: PWM2_IRQHandler
   Definitions
      At line 334 in file RTE\Device\nRF52832_xxAA\arm_startup_nrf52.s
   Uses
      At line 119 in file RTE\Device\nRF52832_xxAA\arm_startup_nrf52.s
      At line 297 in file RTE\Device\nRF52832_xxAA\arm_startup_nrf52.s



ARM Macro Assembler    Page 4 Alphabetic symbol ordering
Relocatable symbols


PendSV_Handler 00000016

Symbol: PendSV_Handler
   Definitions
      At line 254 in file RTE\Device\nRF52832_xxAA\arm_startup_nrf52.s
   Uses
      At line 81 in file RTE\Device\nRF52832_xxAA\arm_startup_nrf52.s
      At line 255 in file RTE\Device\nRF52832_xxAA\arm_startup_nrf52.s

QDEC_IRQHandler 0000001A

Symbol: QDEC_IRQHandler
   Definitions
      At line 320 in file RTE\Device\nRF52832_xxAA\arm_startup_nrf52.s
   Uses
      At line 103 in file RTE\Device\nRF52832_xxAA\arm_startup_nrf52.s
      At line 283 in file RTE\Device\nRF52832_xxAA\arm_startup_nrf52.s

RADIO_IRQHandler 0000001A

Symbol: RADIO_IRQHandler
   Definitions
      At line 303 in file RTE\Device\nRF52832_xxAA\arm_startup_nrf52.s
   Uses
      At line 86 in file RTE\Device\nRF52832_xxAA\arm_startup_nrf52.s
      At line 266 in file RTE\Device\nRF52832_xxAA\arm_startup_nrf52.s

RNG_IRQHandler 0000001A

Symbol: RNG_IRQHandler
   Definitions
      At line 315 in file RTE\Device\nRF52832_xxAA\arm_startup_nrf52.s
   Uses
      At line 98 in file RTE\Device\nRF52832_xxAA\arm_startup_nrf52.s
      At line 278 in file RTE\Device\nRF52832_xxAA\arm_startup_nrf52.s

RTC0_IRQHandler 0000001A

Symbol: RTC0_IRQHandler
   Definitions
      At line 313 in file RTE\Device\nRF52832_xxAA\arm_startup_nrf52.s
   Uses
      At line 96 in file RTE\Device\nRF52832_xxAA\arm_startup_nrf52.s
      At line 276 in file RTE\Device\nRF52832_xxAA\arm_startup_nrf52.s

RTC1_IRQHandler 0000001A

Symbol: RTC1_IRQHandler
   Definitions
      At line 319 in file RTE\Device\nRF52832_xxAA\arm_startup_nrf52.s
   Uses
      At line 102 in file RTE\Device\nRF52832_xxAA\arm_startup_nrf52.s
      At line 282 in file RTE\Device\nRF52832_xxAA\arm_startup_nrf52.s

RTC2_IRQHandler 0000001A

Symbol: RTC2_IRQHandler
   Definitions



ARM Macro Assembler    Page 5 Alphabetic symbol ordering
Relocatable symbols

      At line 336 in file RTE\Device\nRF52832_xxAA\arm_startup_nrf52.s
   Uses
      At line 121 in file RTE\Device\nRF52832_xxAA\arm_startup_nrf52.s
      At line 299 in file RTE\Device\nRF52832_xxAA\arm_startup_nrf52.s

Reset_Handler 00000000

Symbol: Reset_Handler
   Definitions
      At line 207 in file RTE\Device\nRF52832_xxAA\arm_startup_nrf52.s
   Uses
      At line 68 in file RTE\Device\nRF52832_xxAA\arm_startup_nrf52.s
      At line 208 in file RTE\Device\nRF52832_xxAA\arm_startup_nrf52.s

SAADC_IRQHandler 0000001A

Symbol: SAADC_IRQHandler
   Definitions
      At line 309 in file RTE\Device\nRF52832_xxAA\arm_startup_nrf52.s
   Uses
      At line 92 in file RTE\Device\nRF52832_xxAA\arm_startup_nrf52.s
      At line 272 in file RTE\Device\nRF52832_xxAA\arm_startup_nrf52.s

SPIM0_SPIS0_TWIM0_TWIS0_SPI0_TWI0_IRQHandler 0000001A

Symbol: SPIM0_SPIS0_TWIM0_TWIS0_SPI0_TWI0_IRQHandler
   Definitions
      At line 305 in file RTE\Device\nRF52832_xxAA\arm_startup_nrf52.s
   Uses
      At line 88 in file RTE\Device\nRF52832_xxAA\arm_startup_nrf52.s
      At line 268 in file RTE\Device\nRF52832_xxAA\arm_startup_nrf52.s

SPIM1_SPIS1_TWIM1_TWIS1_SPI1_TWI1_IRQHandler 0000001A

Symbol: SPIM1_SPIS1_TWIM1_TWIS1_SPI1_TWI1_IRQHandler
   Definitions
      At line 306 in file RTE\Device\nRF52832_xxAA\arm_startup_nrf52.s
   Uses
      At line 89 in file RTE\Device\nRF52832_xxAA\arm_startup_nrf52.s
      At line 269 in file RTE\Device\nRF52832_xxAA\arm_startup_nrf52.s

SPIM2_SPIS2_SPI2_IRQHandler 0000001A

Symbol: SPIM2_SPIS2_SPI2_IRQHandler
   Definitions
      At line 335 in file RTE\Device\nRF52832_xxAA\arm_startup_nrf52.s
   Uses
      At line 120 in file RTE\Device\nRF52832_xxAA\arm_startup_nrf52.s
      At line 298 in file RTE\Device\nRF52832_xxAA\arm_startup_nrf52.s

SVC_Handler 00000012

Symbol: SVC_Handler
   Definitions
      At line 245 in file RTE\Device\nRF52832_xxAA\arm_startup_nrf52.s
   Uses
      At line 78 in file RTE\Device\nRF52832_xxAA\arm_startup_nrf52.s
      At line 246 in file RTE\Device\nRF52832_xxAA\arm_startup_nrf52.s




ARM Macro Assembler    Page 6 Alphabetic symbol ordering
Relocatable symbols

SWI0_EGU0_IRQHandler 0000001A

Symbol: SWI0_EGU0_IRQHandler
   Definitions
      At line 322 in file RTE\Device\nRF52832_xxAA\arm_startup_nrf52.s
   Uses
      At line 105 in file RTE\Device\nRF52832_xxAA\arm_startup_nrf52.s
      At line 285 in file RTE\Device\nRF52832_xxAA\arm_startup_nrf52.s

SWI1_EGU1_IRQHandler 0000001A

Symbol: SWI1_EGU1_IRQHandler
   Definitions
      At line 323 in file RTE\Device\nRF52832_xxAA\arm_startup_nrf52.s
   Uses
      At line 106 in file RTE\Device\nRF52832_xxAA\arm_startup_nrf52.s
      At line 286 in file RTE\Device\nRF52832_xxAA\arm_startup_nrf52.s

SWI2_EGU2_IRQHandler 0000001A

Symbol: SWI2_EGU2_IRQHandler
   Definitions
      At line 324 in file RTE\Device\nRF52832_xxAA\arm_startup_nrf52.s
   Uses
      At line 107 in file RTE\Device\nRF52832_xxAA\arm_startup_nrf52.s
      At line 287 in file RTE\Device\nRF52832_xxAA\arm_startup_nrf52.s

SWI3_EGU3_IRQHandler 0000001A

Symbol: SWI3_EGU3_IRQHandler
   Definitions
      At line 325 in file RTE\Device\nRF52832_xxAA\arm_startup_nrf52.s
   Uses
      At line 108 in file RTE\Device\nRF52832_xxAA\arm_startup_nrf52.s
      At line 288 in file RTE\Device\nRF52832_xxAA\arm_startup_nrf52.s

SWI4_EGU4_IRQHandler 0000001A

Symbol: SWI4_EGU4_IRQHandler
   Definitions
      At line 326 in file RTE\Device\nRF52832_xxAA\arm_startup_nrf52.s
   Uses
      At line 109 in file RTE\Device\nRF52832_xxAA\arm_startup_nrf52.s
      At line 289 in file RTE\Device\nRF52832_xxAA\arm_startup_nrf52.s

SWI5_EGU5_IRQHandler 0000001A

Symbol: SWI5_EGU5_IRQHandler
   Definitions
      At line 327 in file RTE\Device\nRF52832_xxAA\arm_startup_nrf52.s
   Uses
      At line 110 in file RTE\Device\nRF52832_xxAA\arm_startup_nrf52.s
      At line 290 in file RTE\Device\nRF52832_xxAA\arm_startup_nrf52.s

SysTick_Handler 00000018

Symbol: SysTick_Handler
   Definitions
      At line 258 in file RTE\Device\nRF52832_xxAA\arm_startup_nrf52.s



ARM Macro Assembler    Page 7 Alphabetic symbol ordering
Relocatable symbols

   Uses
      At line 82 in file RTE\Device\nRF52832_xxAA\arm_startup_nrf52.s
      At line 259 in file RTE\Device\nRF52832_xxAA\arm_startup_nrf52.s

TEMP_IRQHandler 0000001A

Symbol: TEMP_IRQHandler
   Definitions
      At line 314 in file RTE\Device\nRF52832_xxAA\arm_startup_nrf52.s
   Uses
      At line 97 in file RTE\Device\nRF52832_xxAA\arm_startup_nrf52.s
      At line 277 in file RTE\Device\nRF52832_xxAA\arm_startup_nrf52.s

TIMER0_IRQHandler 0000001A

Symbol: TIMER0_IRQHandler
   Definitions
      At line 310 in file RTE\Device\nRF52832_xxAA\arm_startup_nrf52.s
   Uses
      At line 93 in file RTE\Device\nRF52832_xxAA\arm_startup_nrf52.s
      At line 273 in file RTE\Device\nRF52832_xxAA\arm_startup_nrf52.s

TIMER1_IRQHandler 0000001A

Symbol: TIMER1_IRQHandler
   Definitions
      At line 311 in file RTE\Device\nRF52832_xxAA\arm_startup_nrf52.s
   Uses
      At line 94 in file RTE\Device\nRF52832_xxAA\arm_startup_nrf52.s
      At line 274 in file RTE\Device\nRF52832_xxAA\arm_startup_nrf52.s

TIMER2_IRQHandler 0000001A

Symbol: TIMER2_IRQHandler
   Definitions
      At line 312 in file RTE\Device\nRF52832_xxAA\arm_startup_nrf52.s
   Uses
      At line 95 in file RTE\Device\nRF52832_xxAA\arm_startup_nrf52.s
      At line 275 in file RTE\Device\nRF52832_xxAA\arm_startup_nrf52.s

TIMER3_IRQHandler 0000001A

Symbol: TIMER3_IRQHandler
   Definitions
      At line 328 in file RTE\Device\nRF52832_xxAA\arm_startup_nrf52.s
   Uses
      At line 111 in file RTE\Device\nRF52832_xxAA\arm_startup_nrf52.s
      At line 291 in file RTE\Device\nRF52832_xxAA\arm_startup_nrf52.s

TIMER4_IRQHandler 0000001A

Symbol: TIMER4_IRQHandler
   Definitions
      At line 329 in file RTE\Device\nRF52832_xxAA\arm_startup_nrf52.s
   Uses
      At line 112 in file RTE\Device\nRF52832_xxAA\arm_startup_nrf52.s
      At line 292 in file RTE\Device\nRF52832_xxAA\arm_startup_nrf52.s

UARTE0_UART0_IRQHandler 0000001A



ARM Macro Assembler    Page 8 Alphabetic symbol ordering
Relocatable symbols


Symbol: UARTE0_UART0_IRQHandler
   Definitions
      At line 304 in file RTE\Device\nRF52832_xxAA\arm_startup_nrf52.s
   Uses
      At line 87 in file RTE\Device\nRF52832_xxAA\arm_startup_nrf52.s
      At line 267 in file RTE\Device\nRF52832_xxAA\arm_startup_nrf52.s

UsageFault_Handler 00000010

Symbol: UsageFault_Handler
   Definitions
      At line 241 in file RTE\Device\nRF52832_xxAA\arm_startup_nrf52.s
   Uses
      At line 73 in file RTE\Device\nRF52832_xxAA\arm_startup_nrf52.s
      At line 242 in file RTE\Device\nRF52832_xxAA\arm_startup_nrf52.s

WDT_IRQHandler 0000001A

Symbol: WDT_IRQHandler
   Definitions
      At line 318 in file RTE\Device\nRF52832_xxAA\arm_startup_nrf52.s
   Uses
      At line 101 in file RTE\Device\nRF52832_xxAA\arm_startup_nrf52.s
      At line 281 in file RTE\Device\nRF52832_xxAA\arm_startup_nrf52.s

49 symbols



ARM Macro Assembler    Page 1 Alphabetic symbol ordering
Absolute symbols

Heap_Size 00002000

Symbol: Heap_Size
   Definitions
      At line 49 in file RTE\Device\nRF52832_xxAA\arm_startup_nrf52.s
   Uses
      At line 54 in file RTE\Device\nRF52832_xxAA\arm_startup_nrf52.s
Comment: Heap_Size used once
Stack_Align 00000003

Symbol: Stack_Align
   Definitions
      At line 37 in file RTE\Device\nRF52832_xxAA\arm_startup_nrf52.s
   Uses
      At line 40 in file RTE\Device\nRF52832_xxAA\arm_startup_nrf52.s
Comment: Stack_Align used once
Stack_Size 00002000

Symbol: Stack_Size
   Definitions
      At line 31 in file RTE\Device\nRF52832_xxAA\arm_startup_nrf52.s
   Uses
      At line 41 in file RTE\Device\nRF52832_xxAA\arm_startup_nrf52.s
Comment: Stack_Size used once
__Vectors_Size 00000200

Symbol: __Vectors_Size
   Definitions
      At line 200 in file RTE\Device\nRF52832_xxAA\arm_startup_nrf52.s
   Uses
      At line 65 in file RTE\Device\nRF52832_xxAA\arm_startup_nrf52.s
Comment: __Vectors_Size used once
4 symbols



ARM Macro Assembler    Page 1 Alphabetic symbol ordering
External symbols

SystemInit 00000000

Symbol: SystemInit
   Definitions
      At line 209 in file RTE\Device\nRF52832_xxAA\arm_startup_nrf52.s
   Uses
      At line 213 in file RTE\Device\nRF52832_xxAA\arm_startup_nrf52.s
Comment: SystemInit used once
__main 00000000

Symbol: __main
   Definitions
      At line 210 in file RTE\Device\nRF52832_xxAA\arm_startup_nrf52.s
   Uses
      At line 215 in file RTE\Device\nRF52832_xxAA\arm_startup_nrf52.s
Comment: __main used once
2 symbols
465 symbols in table
