:020000040001F9
:10B00000303A002005B501000DB501000FB5010073
:10B0100011B5010013B5010015B5010000000000D5
:10B0200000000000000000000000000017B5010053
:10B03000000000000000000019B501001BB5010070
:10B040001DB501001DB501001DB501001DB50100B4
:10B050001DB501001DB5010095B5010001B7010046
:10B06000EDBA010001BB01001DB501001DB50100D5
:10B070001DB501001DB501001DB501001DB5010084
:10B080001DB50100DDB601001DB501001DB50100B3
:10B0900069B801001DB501006DB801001DB50100C2
:10B0A0001DB501001DB501001DB501001DB5010054
:10B0B0001DB501001DB501000000000000000000EA
:10B0C0001DB501001DB501001DB501001DB5010034
:10B0D0001DB501001DB501000000000000000000CA
:10B0E0000000000000000000000000000000000060
:10B0F0000000000000000000000000000000000050
:10B10000000000000000000000000000000000003F
:10B11000000000000000000000000000000000002F
:10B40000DFF80CD000F0B4F8004800476DC9010027
:10B41000303A0020401E00BF00BF00BF00BF00BF89
:10B4200000BF00BF00BF00BF00BF00BF00BF00BF24
:10B4300000BF00BF00BF00BF00BF00BF00BF00BF14
:10B4400000BF00BF00BF00BF00BF00BF00BF00BF04
:10B4500000BF00BF00BF00BF00BF00BF00BF00BFF4
:10B4600000BF00BF00BF00BF00BF00BF00BF00BFE4
:10B4700000BF00BF00BF00BF00BF00BF00BF00BFD4
:10B4800000BF00BF00BFC5D170470000401E00BF15
:10B4900000BF00BF00BF00BF00BF00BF00BF00BFB4
:10B4A00000BF00BF00BF00BF00BF00BF00BF00BFA4
:10B4B00000BF00BF00BF00BF00BF00BF00BF00BF94
:10B4C00000BF00BF00BF00BF00BF00BF00BF00BF84
:10B4D00000BF00BF00BF00BF00BF00BF00BF00BF74
:10B4E00000BF00BF00BF00BF00BF00BF00BF00BF64
:10B4F00000BF00BF00BF00BF00BF00BF00BFC5D17D
:10B50000704700000648804706480047FEE7FEE710
:10B51000FEE7FEE7FEE7FEE7FEE7FEE7FEE70000E8
:10B5200091B8010001B4010040EA01039B0703D078
:10B5300009E008C9121F08C0042AFAD203E011F872
:10B54000013B00F8013B521EF9D27047D2B201E034
:10B5500000F8012B491EFBD270470022F6E710B518
:10B5600013460A4604461946FFF7F0FF204610BD71
:10B57000064C074D06E0E06840F0010394E8070040
:10B5800098471034AC42F6D3FFF73EFF30DA0100A3
:10B5900050DA01002DE9F0470025DFF8F090A846C9
:10B5A0004FF4807601242F46304601F081FE38B1F9
:10B5B000D9F80403204203D0304601F06FFE254342
:10B5C000361D64007F1CB6B2082FEDD34FF4BE7455
:10B5D000204601F06DFE38B1204601F05FFE2C4898
:10B5E00045F00045D0F800802A4E15F0FF0F14D02A
:10B5F000012700242F420CD009EB8401D1F810055B
:10B60000D1F81015C0F3042056F82420C1F30141ED
:10B6100090477F00641C082CECD3002D32DA002404
:10B62000B14609EB04004E4690F95010491C26D053
:10B6300090F8507027F0C005284600F0A5FE56F897
:10B640002060E6B1BF090120A840A90001F1A04196
:10B65000D1F8001710EA080FC1F3014102D0022906
:10B6600002D00CE003290AD1032F05D102290BD007
:10B670000221284601F003FE39462846B047641CE3
:10B68000042CCED3BDE8F0870321F2E70060004030
:10B69000100500509019002000F01F020121914078
:10B6A0004009800000F1E020C0F88012704700F0EF
:10B6B0001F02012191404009800000F1E020C0F804
:10B6C0000011704700F01F020121914040098000E5
:10B6D00000F1E020C0F80012704700000748002188
:10B6E000C0F84011C0F84411C0F84811C0F84C111E
:10B6F000C0F80011C0F8041101F0FABF00100140B9
:10B700002DE9FE434FF4827001F01CFE0025DFF8A6
:10B710004C91534C012700286ED052484E4605608C
:10B7200094F82A00012818D06089401C6081608943
:10B730002189814223D18DF80050606801902089D1
:10B74000ADF8080084F82750E06810B1A18A01F034
:10B7500019FC2168684688474EE08DF80050606803
:10B7600001902089ADF80800E06828B16060A08AE7
:10B770002081E5603760ECE784F82750E9E7002294
:10B7800094F82900114601F0D3FD6189606800EB4F
:10B790004100012101F094FD94F8290011E000BF5F
:10B7A00004EB4001897D61B1C1B204EB4101CA7D66
:10B7B000897D01F0BDFD37602848001D0760BDE8A8
:10B7C000FE83401C84F82900C0B20828E8D300207A
:10B7D00004EB4001897D11B184F8290003E0401C8D
:10B7E000C0B20828F4D394F8290004EB4001CA7DC4
:10B7F000897D01F09DFD37604FF48A7001F0A2FD54
:10B8000028B118481030056084F82750D7E7A046C3
:10B8100026691FE0B6FA86F04FF00041C1408E4322
:10B820004FF48C7101EB8004204601F08BFD88B150
:10B8300044F80950A4F58C74E0088DF8040044F332
:10B840008000401C8DF800708DF80500D8F80010BD
:10B8500068468847002EDDD1B1E700000070004047
:10B86000E81900200471004001F0DEBE074810B561
:10B87000406830B18047002807D0BDE8104000F094
:10B88000FFBABDE8104000F00DBF10BDB018002099
:10B89000F0B58C480022041D0378211D081D0126E7
:10B8A000062B17D125782D0714D10D78C5F3031574
:10B8B000032D03D1077817F0F00F0ED0042D03D11C
:10B8C000077817F0F00F08D0052D03D1057815F093
:10B8D000F00F02D0062B09D014E04FF08055D5F8B8
:10B8E0004452794FC5F342353D6002E025782D077B
:10B8F00008D10D78C5F30315032D03D1057815F094
:10B90000F00F02D0062B06D01DE0704D2F6827F0F7
:10B9100080772F601AE025782D0714D10D78C5F3B4
:10B920000315032D03D1077817F0F00F0ED0042D67
:10B9300003D1077817F0F00F08D0052D03D1057853
:10B9400015F0F00F02D0062B0AD015E04FF080451D
:10B95000C5F80C21C5F810215B4D2D1F2A6002E0AF
:10B9600025782D0708D10D78C5F30315032D03D1D4
:10B97000057815F0F00F02D0062B05D066E0524C8A
:10B9800003236434236002E023781B075ED1097827
:10B99000C1F30311052959D1007810F0F00F55D1EA
:10B9A0004B4800684B4908604948001D0068091D64
:10B9B0000860474808300068091D086044480C309A
:10B9C0000068091D0860424810300068091D0860C1
:10B9D0003F4814300068091D08603D481830006871
:10B9E0003C49203108603A481C300068091D086055
:10B9F000374820300068091D086035482430006849
:10BA0000091D0860324828300068091D0860304868
:10BA10002C300068091D08602D48303000682D4921
:10BA2000403108602A4834300068091D0860284801
:10BA300038300068091D086025483C300068091D41
:10BA40000860234840300068091D08601F487438AA
:10BA5000016841F470010160BFF34F8FBFF36F8F36
:10BA60004FF01021D1F80002002803DBD1F80002CA
:10BA7000002822DA184B1E6018480468002CFCD0FD
:10BA80001524C1F800420568002DFCD0C1F804421D
:10BA900001680029FCD01A6001680029FCD0BFF3BE
:10BAA0004F8F0A48F03801680D4A01F4E0611143F4
:10BAB0000160BFF34F8F00BFFDE70B4909480860E5
:10BAC000F0BD0000E00F00F03C050040FCED00E0A0
:10BAD0000404001020C5004004E5014000E40140DA
:10BAE0000400FA050090D0038418002004220249C3
:10BAF000024800F00FBE0000141A00200080004031
:10BB000004220249024800F005BE0000201A00206D
:10BB10000090004002E008C8121F08C1002AFAD1B4
:10BB200070477047002001E001C1121F002AFBD1BD
:10BB300070472DE9FC5F0025168807461580406B8D
:10BB400014468946A8464FF00C0A11234FF0020B09
:10BB500098B101784846032E48D380F800B0228877
:10BB6000521C92B2228083542288521C92B22280AC
:10BB700009F802102088401C20803A6BDAB1208836
:10BB8000494600F11205B54230D80B5420881023E5
:10BB9000401C80B220800B542088401C20800F2045
:10BBA0002388155C401ECD54238840B25B1C238043
:10BBB0000028F5DA454697F82E0030B13346224684
:10BBC000494600F0E5FD050011D197F82D0030B190
:10BBD00032462146484600F003FA050007D1B878FE
:10BBE00020B32088C846001DB04202D95046BDE8A7
:10BBF000FC9F684679DF0028F9D12188032008F8E6
:10BC0000010020881921401C80B2208008F8001013
:10BC10002088401C80B2208000EB0801BDF80000A5
:10BC200001F0A8FD0146208808442080F878B8B1CA
:10BC3000228897F90310D31C4846B342D6D800F89F
:10BC400002B022880123521C92B22280835422889F
:10BC5000521C92B2228009F802102088401C2080D9
:10BC60007868B8B1218890F90020CB1C4846B342CF
:10BC7000BCD800F801B021880A23491C89B2218070
:10BC800043542188491C89B2218009F80120208869
:10BC9000401C2080388950B1CDE900464B46062231
:10BCA000022107F1080001F0A1FD05009FD1388AAB
:10BCB00050B1CDE900464B460722032107F11000A1
:10BCC00001F094FD050092D1388B50B1CDE90046CA
:10BCD0004B461522142107F1180001F087FD0500DD
:10BCE00085D1386A30B133462246494600F0AAFB76
:10BCF0000500DBD1786A30B133462246494600F070
:10BD0000A1FE0500D2D197F82C0038B13346224667
:10BD10004946384601F00AFC0500C7D1387838B1E9
:10BD2000334622464946384600F0BEFE0500BDD1E6
:10BD300028465CE730B597B05920ADF85000AB20ED
:10BD400004258DF80000CD208DF8010031480178E0
:10BD50008DF8021041788DF8031081788DF8041069
:10BD6000C0788DF805006C462946A01C00F0AEFB9B
:10BD70008DF8060027481921C01E8068CDF80700FD
:10BD800012208DF80B0013208DF80C0014208DF874
:10BD90000D0015208DF80E0016208DF80F001720CD
:10BDA0008DF8100018208DF811008DF81210202148
:10BDB0008DF8131021218DF8141022218DF8151003
:10BDC00023218DF81610AA218DF81710ADF8540014
:10BDD0001694382106A8FFF7C0FB002414A88DF89C
:10BDE00018400F908DF81B50214606A800F0C4F8AB
:10BDF00008B100F045F818210748FFF7AEFB0648E8
:10BE00000321017044600472A0210182448217B0B2
:10BE100030BD0000631800200C19002010B5074841
:10BE200073DF08B100F02CF8022000F05DF9002863
:10BE300003D0BDE8104000F023B810BD0C1900205D
:10BE4000054B0122824093F8280009B1104300E01D
:10BE5000904383F828007047E8190020BFF34F8F04
:10BE600005480168054A01F4E06111430160BFF330
:10BE70004F8F00BFFDE700000CED00E00400FA0565
:10BE80000EB500210091CDE901106A4644F201008F
:10BE9000FFF7E4FF2DE9F843DFF870900D461746F1
:10BEA000D9F80810044651B34CB3052D02D207202F
:10BEB000BDE8F883606910B3607C012821D00026BA
:10BEC00001F05EFCD9F80810804601EBC800694615
:10BED00001F078FCB8B1012100F8041B0C4910C036
:10BEE000096880E8E200D9F8081001EBC8009DF865
:10BEF000001041701420FFF7E5FB0020D8E7082070
:10BF0000D6E72E46DCE70420D2E700009018002098
:10BF100004150140F8B5124E0446B168E1B1DCB138
:10BF20006069C8B10027277401F02AFC0546B06893
:10BF3000694600EBC50001F045FC78B102210170B3
:10BF40004460B0689DF8001000EBC50041701420FB
:10BF5000FFF7B8FB3846F8BD0820F8BD0420F8BD4F
:10BF6000901800200349084201D1012070470020A9
:10BF70007047000000C0F0FFF0B50C4693B01F21E1
:10BF80000726ADF80010ADF80410002750B1C178B5
:10BF900049070DD56A4602A9FFF7CBFD002808D155
:10BFA00002AD02E00025ADF800706CB1E07810B190
:10BFB000304613B0F0BD01AA0AA92046FFF7B9FD2B
:10BFC0000028F6D10AAA02E00022ADF80470BDF8FC
:10BFD0000400C3B2BDF80000C1B2284672DFE8E732
:10BFE0007CB5054608880C460930904201D90C20E2
:10BFF0007CBD684671DF0028FAD12188082068548A
:10C0000020881B21401C80B2208029542088401C9D
:10C0100080B220802844DDF801100160BDF80510D1
:10C0200081802088801D80B220809DF8001001B1A1
:10C03000012129542088401C208000207CBD000064
:10C040002DE9F04707460024244802E0641C042C34
:10C0500041D250F82420BA42F8D1042C3BD21F48D8
:10C06000DFF87C901F4E0C38A9F1140841B3012968
:10C070000FD002292FD104EB440030444578002D25
:10C0800029D0D8F81010002925D02846BDE8F0475F
:10C09000084704EB4401755C0E44717861B1D8F82F
:10C0A00004100F4A01EB81014900133A8068FFF741
:10C0B000F1FE08B988F80170B17809F80410DEE7DC
:10C0C0008068FFF727FF04EB4401314419F80400AE
:10C0D0008D78A842D3D0BDE8F0870000ECD90100EC
:10C0E0008018002064190020044A01460020127ABA
:10C0F000D20702D0084600F003B870476C18002041
:10C100002DE9F84F854EDFF810A24FF4E01CF168DE
:10C1100007462CEA010C0091002071680AF1040422
:10C12000251D7F4B4FF400324FF4802B01EB810E25
:10C130008146182F16D2DFE807F00C17173A4E6029
:10C140007083868F868FEAA0A0A0A0A0CAD1D8E174
:10C15000EAEA009A4FF4F01191432160C5F800908B
:10C1600086F80090BDE8F88FC4F800C04846C5F8CE
:10C170000090DAF800C08CF4F01C5FEA8C3C09D522
:10C1800022602860022F02D14FF4E16008E04FF4F2
:10C190007A6005E02A602060022F3CD04FF4C8701E
:10C1A0006422B0FBF2F04143377000225EE0C4F835
:10C1B00000C04846C5F80090DAF800C08CF4F01CC6
:10C1C0005FEA8C3C04D5226028604FF44870E7E7B2
:10C1D0002A6020601FE0C4F800C04846C5F80090FF
:10C1E000DAF800C08CF4F01C5FEA8C3C02D52260C7
:10C1F0002860CCE72A602060D0E7C4F800C0484639
:10C20000C5F80090DAF800C08CF4F01C5FEA8C3CB2
:10C21000DED522602860C820C2E7C4F800C04846C6
:10C22000C5F80090DAF800C08CF4F01C5FEA8C3C92
:10C2300002D52260286001E02A602060377014E097
:10C24000C4F800C04DE0DAF800002BEA00022260DA
:10C2500000F48020286008E0DAF800002BEA0001F2
:10C26000216000F480202860714600221868BDE833
:10C27000F84FFFF70FBE21602EE098465868FFF791
:10C2800049FED7F1110100D040B1F16801F4F0117D
:10C290002160C5F80090C6F80C9063E74FF40022C7
:10C2A000F26001290CD9C82011FB00F16420B1FB18
:10C2B000F0F1706800224143D8F80400FFF7EAFD6E
:10C2C000F16801F4F0112960C4F800904AE74FF4D6
:10C2D000F0112160C5F80090377043E74FF4E0118A
:10C2E00021604946C5F8009006E04FF4D011216066
:10C2F0004946C5F800905A462A60BCE74FF4C01181
:10C3000021604946C5F800904FF4C022F4E74FF48D
:10C31000F01129604946AEE7040500506C18002072
:10C32000E0D9010005494FF0FF32082841F82020EC
:10C3300002D3084480F8482070470000901900207C
:10C34000F0B54FF0FF3512B10023082601E00823B5
:10C350000C260C4C05E000BF54F823707F1C04D061
:10C360005B1CB342F8D32846F0BD26185DB286F8B0
:10C37000305044F82310002AF5D1E11881F8480024
:10C38000F1E70000901900200249084490F93000BC
:10C3900070470000901900202DE9F05F2648C16821
:10C3A000F1B3DFF898B00E688146DBF8004007690A
:10C3B000C078E11B21F07F45ED1CB0B9DFF880802B
:10C3C0004FF48030C8F84403C8F804031120FFF785
:10C3D00063F91120FFF76BF94FF0010AC8F800A0CC
:10C3E0002F20FFF753F889F803A0B54200D2354655
:10C3F000124BE8193C3320F07F401860DBF8001046
:10C400005A46091B21F07F41001B20F07F40C91CC8
:10C4100081420FD9106818602F20FFF737F800E02D
:10C4200004E0BDE8F05F1120FFF74CB9BDE8F05F14
:10C4300000F0A8BFBDE8F09F90180020041501404F
:10C44000001001402DE9F04117880646B81D14463A
:10C450000D46984202D90C20BDE8F08131880722B0
:10C4600006290AD34FF4486C4FF6FF73614501D992
:10C47000994202D17088062801D21046ECE7604547
:10C4800001D99842F9D1994203D0984201D0814212
:10C49000F3D80520E85520881221401C80B2208066
:10C4A00029542088401C80B220804119308801F036
:10C4B00061F92188084480B220804119708801F018
:10C4C00059F92188084420800020C5E730B503468B
:10C4D00000200246044C03E09D5C4540521C605D18
:10C4E0008A42F9D330BD0000E0D801000B48006853
:10C4F000C005C00D10D0103840B2002806DA00F098
:10C500000F0000F1E02090F8140D03E000F1E020AE
:10C5100090F80004400970470420704704ED00E0E3
:10C520000E4910B54A788C780023A24212D0521CD2
:10C53000D2B24A70022A00D14B70084A4B781832A6
:10C5400052F8232002600869104420F07F400861FF
:10C55000012010BD0360002010BD000090180020D5
:10C560007FB500F0C7FB08B1FFF78AFC00200390FD
:10C5700003A90C2000F0F0FB08B1FFF781FC0C20B0
:10C5800000F046FC194C0325194A206800908DF8EC
:10C5900001506946062000F051FB08B1FFF770FC1E
:10C5A000606801908DF80550114A01A9082000F03B
:10C5B00045FB08B1FFF764FCA06802908DF80950B4
:10C5C0000B4A02A9072000F039FB08B1FFF758FC1D
:10C5D0000121062000F0E0FA0121072000F0DCFA3A
:10C5E0000121082000F0D8FA7FBD0000BCD801006E
:10C5F000F5C5010070B5022601251B4C062808D0A0
:10C60000072825D0082803D12078012800D12670DA
:10C6100070BD4FF47A7000F095FA607802280ED061
:10C6200066700C2000F090FBA07800F06BFC74DFCB
:10C6300048DF0028ECD0BDE87040FFF721BC0C209B
:10C6400000F0EEFB6570A078BDE8704000F074BCAF
:10C65000217831B10020012901D00229D8D12070E0
:10C6600070BD257070BD00006018002018B108284A
:10C6700001D80120704700207047000010B5044623
:10C68000FFF7F4FF48B10648641E90F82810012017
:10C69000A040014201D0012010BD002010BD0000CB
:10C6A000E8190020F8B51A4C207800282ED020690F
:10C6B00028B10026E06820B1002526B110E001264F
:10C6C000F8E70125F9E7684652DF052803D020B1D5
:10C6D000FFF7D6FB04E0012602E0216900988847B5
:10C6E00085B96088ADF800006946A06861DF05285B
:10C6F00003D020B1FFF7C4FB04E0012502E0D4E938
:10C7000002018847002EDED0002DD6D0F8BD0000F3
:10C71000B01800202DE9F041002516468846044651
:10C720002F4612E04FF4A07000EB85004FF48031EB
:10C730002258A9403AB1D4F804230A4203D0275022
:10C74000D8E9002190476D1CEDB2B542EAD3BDE8AF
:10C75000F08100000121814003484068014201D07E
:10C7600001207047002070478818002001460120F2
:10C770008840FFF7F7BB00000121814003480142D8
:10C7800001D001207047002070470000FF3F0F00DC
:10C7900030B51488E51C9D4201D90C2030BD02251E
:10C7A0000D5513881C245B1C9BB21380CC5413883A
:10C7B0005B1C9BB21380012807D0022807D00328F6
:10C7C00007D0042807D0072030BD002004E0012056
:10C7D00002E0CD5401E00320C8541088401C1080B2
:10C7E000002030BD2DE9F047DFF8ACA0DAF80C00EE
:10C7F0009AF8004080469AF80460DAF80890DAF86F
:10C8000010703AE009EBC4052A7833E002EB4201EC
:10C810006B68521C03EBC101AB78D2B2934200D1DA
:10C8200000220B78022B02D0032B23D11FE0D1F87A
:10C8300004C00346014603E0614503D00B46C969C5
:10C84000C1B1F9E7B1B18B4205D1C06918B9134F35
:10C850000126BE600027D1F800C0C969D96149B17D
:10C860000B6863440B6005E00174C06900E00021BF
:10C870000028F9D169789142C8D1641EE4B2C1D2CE
:10C88000CAE903078AF80460404502D00120BDE8E8
:10C89000F0870020FBE70000901800200010014006
:10C8A0002DE9F04705462F48002680460778D0F846
:10C8B0000C904BE0D8F8080000EBC70440E002D031
:10C8C0002846ED691EE02078616800EB4002401CBC
:10C8D000C0B201EBC2012070A278904200D1267054
:10C8E0000A784868012A2DD1027C5ABB8A684260C6
:10C8F000CA6882600A69C2604969816198F8041057
:10C9000001B146604268D8F81030DFF85CC0D11A37
:10C9100021F07F41614502D28268114406E0991AF4
:10C92000826821F07F418A4202D9511A016000E0F9
:10C9300006604660012186600174C66100F0BAFE9F
:10C94000002DBCD1207861788842BCD17F1EFFB217
:10C95000B0D2D8F80C10494502D00120BDE8F087CC
:10C960000020FBE790180020FFFF7F00314D0024DE
:10C9700086B02646AC60FFF7F3FD012068702E49B3
:10C980000968C90911F0010F01D0287000E02E706C
:10C99000002348222949082000F02CFE08B1FFF7A7
:10C9A0006FFA00216A46084600F00EFE08B1FFF754
:10C9B00067FA234800F0B2FD08B1FFF761FA684654
:10C9C00000F0F8FD08B1FFF75BFAFFF7B3F900F0EC
:10C9D00055FD00F013FD00F093FDFFF71FFA4FF433
:10C9E0007A7630BFA868641C401CA860A4B23046A8
:10C9F000844200D10024297859B1012916D0022996
:10CA0000EFD1642000F09EF8022C0BD0042C09D04A
:10CA100002E06978012903D00C2000F095F9E0E7E5
:10CA200000F090F80C2000F0FBF9DAE70C2000F0A1
:10CA3000EFF9D6E76018002010050050C418002058
:10CA4000D816002070B5144682880E460546208808
:10CA5000111D0144921C994201D8FE2A01D90C20D3
:10CA600070BD521C32542088FF21401C80B22080AF
:10CA700031542088401C80B220808119288800F021
:10CA800079FE2188084480B22080AA8842B1A96832
:10CA900041B13044FEF748FD2088A9880844208031
:10CAA000002070BD072070BDF8B50E460178144611
:10CAB0000546012901D1687830B12088821C9A424C
:10CAC0002DD8012902D006E00720F8BD697801447D
:10CAD000891C994223D8181A801E87B2ADF80070BD
:10CAE0002188B01C084469467DDF0028EDD12878F4
:10CAF000022805D1BDF80010B94201D809210AE089
:10CB00000821012805D16878B84202D8ADF80000A4
:10CB100001E0ADF80070BDF80000FE2801D90C203E
:10CB2000F8BD2288401CB0542088401C80B2208070
:10CB300031542088401C2080BDF80010084420801B
:10CB40000020F8BD31B540F2E73404E0401E00900B
:10CB50002046FEF75FFC00980028F7D138BD490752
:10CB6000090E002806DA00F00F0202F1E02282F836
:10CB7000141D03E000F1E02282F8001400F01F020F
:10CB8000012191404009800000F1E020C0F88012AE
:10CB9000C0F80011704700002DE9F0478846814633
:10CBA00000F0D8FB0124224E0028484618D0FFF799
:10CBB000EBFB304490F848008009032802D001289C
:10CBC00006D007E01B48006804FA09F4204201D1AE
:10CBD000022100E003214846BDE8F04700F04FBBCA
:10CBE00000F0C4FB002820D04846FFF7CDFB0546E7
:10CBF000114F4FF4807007EB850100EB8500D1F8F1
:10CC0000102580B242F00102C1F8102500F046FB69
:10CC1000B8F1000F09D04846FFF7B6FB56F82000E0
:10CC2000002802D0AC40C7F80443BDE8F0870000FC
:10CC30009019002010050050006000402DE9FC41D3
:10CC4000DFF8A480044608EB0400002790F93000C8
:10CC50001346C0170E46401C01D0082740E0F2786A
:10CC600019462046FFF76CFB0546401C37D0B078CC
:10CC700048B1A00000F1A040D0F8001721F0020157
:10CC8000C0F8001707E000217378204600910A469B
:10CC9000019100F0E3FAF078C0B11448317800EB6C
:10CCA0008500D0F81025124B1A40C0F810254FF41B
:10CCB000F8524FF4403302EA042203EA01410A43E6
:10CCC000D0F810150A43C0F8102509E008EB05005C
:10CCD000327810F8481F41EA8211017000E0042701
:10CCE0003846BDE8FC81000090190020006000403B
:10CCF000FFE0FCFF70B5124D95F8540008B1082014
:10CD000070BD0020411E2A18401CC0B282F83010AD
:10CD10002028F8D300242046FFF704FB641CE4B26B
:10CD20000C2CF8D303210620FFF719FF05494FF01B
:10CD30000040C1F80403012085F85400002070BDB4
:10CD400090190020006000400121814001480160ED
:10CD5000704700000C0500502DE9FC4104462848AE
:10CD60000D462044002690F93010491C01D00826B9
:10CD70003FE0A978002751B3012200212046FFF7A8
:10CD8000DFFA411C21D083001E482A7818446978B4
:10CD9000D0F81035DFF870C003EA0C03C0F8103586
:10CDA000D0F810354FF4F85C0CEA042C43EA0C037D
:10CDB0004FF4403C0CEA02424FF4801C0CEA015153
:10CDC0000A431343C0F8103504E0042611E0FE21A5
:10CDD00080F8301069780120A04001290CD00B495F
:10CDE000086001222046009700231146019700F0B9
:10CDF00035FA3046BDE8FC810449091FF0E7000020
:10CE00009019002000600040FFE0ECFF0C0500508E
:10CE10000121814001480160704700000805005071
:10CE20000121814005480068044B21EA00021B1DD6
:10CE30001A600840191D0860704700000405005082
:10CE40002DE9F84F1E4E002583464FF00408AA46F0
:10CE50004FF001098DF800A0FFF748FB07460128B5
:10CE600006D0684636DF02280BD008B1FFF708F875
:10CE700009FA05F434420ED02846FFF76BFC10B1D6
:10CE800009E072B6F4E70F484FF00008416821430B
:10CE900041608BF80050012F08D062B69DF8000069
:10CEA00037DF022802D008B1FEF7EAFFB8F1000030
:10CEB00004D005F10105A643EDB2CBD1BDE8F88F52
:10CEC000FF3F0F008818002070B514460D0006467D
:10CED00010D07CB1FFF750FC70B13046FFF73AFC40
:10CEE00060B1074800EBC600C0F81055C0F8144503
:10CEF000002070BD0E2070BD072070BD082070BDE1
:10CF000000F0014010B50446FFF730FC68B1204640
:10CF1000FFF732FC18B12046FFF71CFC38B1054979
:10CF20000120A0400860002010BD072010BD08208F
:10CF300010BD000008F5014010B50446FFF716FCCF
:10CF400068B12046FFF718FC18B12046FFF702FC35
:10CF500038B105490120A0400860002010BD07201D
:10CF600010BD082010BD000004F501400448017800
:10CF700009B1852070470121017000207047000031
:10CF8000881800202DE9F05F334D074602200E4639
:10CF9000C5F80803314CDFF8C8B04FF4807894F836
:10CFA00027004FF0000A012811D00220C5F8040321
:10CFB0004FF0010984F82790082084F82900002008
:10CFC00004EB4001897DF9B184F8290020E0E06894
:10CFD00028B10220C5F804031120BDE8F09FE760E6
:10CFE000A68294F82A0001280AD1404600F0AAF946
:10CFF0000028FAD0CBF800A03146384600F060F99E
:10D000000220C5F8040322E0401CC0B20828D7D390
:10D0100094F82900082801D30820DEE767602681FC
:10D02000D046A4F80AA004EB4001C4F80CA0CA7DC5
:10D03000897D00F07DF994F82A00012809D00121AA
:10D04000384600F03DF9CBF80080C5F8009000208C
:10D05000C3E73146F4E7000000700040E819002003
:10D060000071004070B51F4D06460C4695F827002C
:10D07000012804D0A079FFF701FB30B901E01120AD
:10D0800070BDE079FFF7FAFA08B1042070BDA0790D
:10D09000FFF7ECFA28B1A179491EC8B20121FEF7C9
:10D0A000CFFEE079FFF7E2FA28B1E0790121401ED6
:10D0B000C0B2FEF7C5FE05EB4600817D19B915F833
:10D0C0002A1F491C2970A1798175E179C175214612
:10D0D000304600F0FDF800221146304600F028F9F5
:10D0E000002070BDE8190020154A10B592F82630CE
:10D0F0000BB1082010BD09B110B102E0072010BD2E
:10D100001048114B42F80C1B017819601B1D417827
:10D1100019600021117701249476D176917722F855
:10D12000021C516081780720FFF719FD0749022092
:10D13000C1F804030448F0380460002010BD00006A
:10D14000E81900201CDA0100F07500400070004072
:10D1500030B54FF4803405688C4013B1C5F80443F2
:10D1600001E0C5F80843006800EB8100C0F84025E5
:10D1700030BD0000016801220A600079034A00EB1B
:10D18000400002EB8000022101727047141A002057
:10D19000F0B40468049E40F20115D4F800728D408A
:10D1A000AF43C4F800720468D4F800521D43C4F8B9
:10D1B00000523346F0BCFFF7CBBF00002DE9F04131
:10D1C000044600790D46234B00EB400103EB81063A
:10D1D000317A11B10820BDE8F0810AB115B104E03F
:10D1E0000720F8E71C4901EBC005326068687060F1
:10D1F000002003464FF4A07706E000BF226807EB4B
:10D2000080015350401CC0B261798142F6D8206839
:10D21000E978000B40B2FFF7A2FC20686978D0F8EB
:10D22000042561F30102C0F804252068A978D0F82C
:10D23000082561F30102C0F8082520682978D0F894
:10D24000102561F30302C0F8102501203072002080
:10D25000C1E70000141A002020DA010030B541EACD
:10D260004201DDE9034541EA8301800041EA0421EE
:10D2700000F1A04041EA0541C0F8001730BD800030
:10D2800000F5E06000F1A040026822F44032026044
:10D29000026842EA0141016070470000034908B595
:10D2A0000844002101600068009008BD0060004053
:10D2B00002494058012800D000207047006000401B
:10D2C000024A1060101D0160704700002C7600407B
:10D2D00010B50A784B78302402F0030204EA0313F5
:10D2E0001A438B784FF4E06404EA03231A43CB78A3
:10D2F0004FF4805404EA03331A430B794FF4E024CB
:10D3000004EA03431A434B794FF4801404EA0353AD
:10D310001A43030105481844C0F818258A79C979C9
:10D32000C0F81415C0F8102510BD000000700040B2
:10D33000030103481844C0F81425C0F810157047BD
:10D340000070004002494058002800D0012070477A
:10D35000007000400449084490F93000082801DBBF
:10D3600001207047002070479019002004490844AC
:10D3700090F93000082801D2012070470020704742
:10D380009019002070B5012670044FF0E0210025AF
:10D39000C1F88001084C4010C4F84803C4F80803E1
:10D3A00066602F20FEF772F8A660044C2F202561DE
:10D3B000FEF76CF8E57070BD001001409018002079
:10D3C00010B504460078002814D102216068FFF7E8
:10D3D000D9FD08B1FEF754FD60680749028821F8BD
:10D3E000032F4088488074DFFEF7A4FCBDE810409E
:10D3F000FEF714BD10BD00006018002000B51D49E7
:10D4000087B0D1E90502CDE9000202208DF80200C3
:10D4100001228DF80320D1E90731CDE902318DF8E1
:10D420000A008DF80B2014490020FFF75DFE08B1BB
:10D43000FEF726FD69460020FFF714FE08B1FEF74F
:10D440001FFD02A90120FFF70DFE08B1FEF718FD30
:10D45000022104A8FFF796FD08B1FEF711FD022195
:10D4600005A8FFF78FFD002801D0FEF709FD07B0E2
:10D4700000BD0000BCD80100C1D301003EB51B496E
:10D48000D1E90301CDE90101FFF770FD08B1FEF715
:10D49000F7FC174A002101A8FFF790FE08B1FEF73C
:10D4A000EFFC0198D0F81005124A0123C240002079
:10D4B0000146009001A8FFF76BFE01A8FFF75AFE96
:10D4C000019C0D4D0D4804F5A074FFF7B9FC08B19F
:10D4D000FEF7D6FC09482A46801E21468078FFF7D1
:10D4E000F3FC002801D0FEF7CBFC3EBDBCD8010008
:10D4F00025D60100006A1800047000406218002060
:10D50000054810B58078FFF717FD002803D0BDE867
:10D510001040FEF7B5BC10BD6018002008B50249E8
:10D520000020009108BD0000601800202DE9F041A6
:10D530000746806A14468846C8B3002531E000BF1C
:10D54000B96A05EB450001EB8006B088801CFE2817
:10D5500002D90C20BDE8F0812288401C08F80200A6
:10D5600020881622401C80B2208008F800202088E5
:10D57000401C80B2208000EB0801308800F0FAF8EF
:10D580002188084480B22080B28842B1B16871B16C
:10D590004044FDF7C9FF2088B188084420806D1CF5
:10D5A000EDB297F82C00A842CAD80020D2E7FFE7D6
:10D5B0000720CFE71CB5034901910091694660DF60
:10D5C0001CBD00006018002070B50E4605461446CC
:10D5D00014211046FDF7C1FF0120208000212161A8
:10D5E00021732672657205B1A072002070BDFEF72E
:10D5F00035BC000070B509B18C0701D0072070BDA3
:10D60000064C0125A16062800549636010DF002897
:10D61000F5D1257016202EDF70BD0000B018002057
:10D62000EFD50100704700002DE9F84F204C002590
:10D630006846D4E903B6FEF773FF8046FFF7D2F8D9
:10D640000746A946B8F1000F25D00023009ACC4622
:10D65000E06819E007680146974202D9BA1A0260E9
:10D6600014E0C1F800C0D1F80C80D21BC8693B445B
:10D670008A46B8F1000F07D0F71827F07F47C1E9B5
:10D680000178CAF81C500D460028E3D1E060284616
:10D69000FFF706F904E02846FFF702F900B917B1D1
:10D6A0005846FEF779FE84F80490BDE8F88F000034
:10D6B000901800200D4B10B5D96831B102680C6884
:10D6C000A24204D8A21A0A60C161D86010BD0B46FC
:10D6D00003E00B46C969121B21B10C689442F8D3D0
:10D6E000A41A0C600260C161D86110BD90180020BE
:10D6F0002DE9F0411D4DEC68002C35D01C48002769
:10D7000000682969B846401A20F07F462068B04278
:10D7100015D82246361A0744E469107C68B182F8AD
:10D7200010806B6933B1D2E90501984728B1FEF743
:10D73000A7FB02E0D2E905108847002CE6D1697802
:10D74000A878814206D1401CC0B2A870022801D13D
:10D7500085F802800548A978183040F82170BDE8A6
:10D76000F0411420FDF7AEBFBDE8F0819018002015
:10D77000041501400870000A48700220704700003C
:10D780000F480068C005C00D13D0103840B2002803
:10D7900006DA00F00F0000F1E02090F8140D03E02D
:10D7A00000F1E02090F800044009012803D003288C
:10D7B00003D002207047002070470120704700000E
:10D7C00004ED00E042788378521CD2B2934200D13B
:10D7D00000220378934201D1002070470A7041680B
:10D7E000407800EB400001EBC00070472DE9FC41A0
:10D7F0001646DDE90854CDE900541F468046022252
:10D8000000F00CF8002807D1CDE900543B46102267
:10D810003146404600F002F8BDE8FC812DE9FC5F8E
:10D820000026DDE90C4B994692468E4680462788B5
:10D83000354630E0D8F80400002200EB8500694648
:10D840000068019001A865DF002830D19DF8000034
:10D8500050451FD10EB1002100E00221228808446A
:10D860001118594522D846B9521C90B2208009F8A7
:10D8700000E02088401C20800126218801A801EBBF
:10D880000902694665DF002811D120889DF8001043
:10D89000084420806D1CB8F80000A842CADC56B1CC
:10D8A0002088C01B401E80B2FF2802D90C20BDE892
:10D8B000FC9F09F807000020F9E7000002000001C2
:10D8C000010000010300000100900040010400007D
:10D8D0000000000002000100000000000200020041
:10D8E000005EBCE2613FDD83C29C7E20A3FD1F4140
:10D8F0009DC3217FFCA2401E5F01E3BD3E6082DC30
:10D90000237D9FC1421CFEA0E1BF5D0380DE3C621F
:10D91000BEE0025CDF81633D7C22C09E1D43A1FF0F
:10D920004618FAA427799BC584DA3866E5BB5907FF
:10D93000DB856739BAE406581947A5FB7826C49AEF
:10D94000653BD987045AB8E6A7F91B45C6987A24DF
:10D95000F8A6441A99C7257B3A6486D85B05E7B9CF
:10D960008CD2306EEDB3510F4E10F2AC2F7193CDBF
:10D97000114FADF3702ECC92D38D6F31B2EC0E50AF
:10D98000AFF1134DCE90722C6D33D18F0C52B0EE9F
:10D99000326C8ED0530DEFB1F0AE4C1291CF2D738F
:10D9A000CA947628ABF517490856B4EA6937D58B7F
:10D9B0005709EBB536688AD495CB2977F4AA48166F
:10D9C000E9B7550B88D6346A2B7597C94A14F6A85F
:10D9D000742AC896154BA9F7B6E80A54D7896B354F
:10D9E0002419002044190020701900200D000000A7
:10D9F0000E0000000F000000100000000D000300EA
:10DA000041C001000E00030041C001000F000300EF
:10DA100041C001001000030041C0010002000300EA
:10DA200000000303000000000000000300000000ED
:10DA300050DA0100601800206400000014BB0100EF
:10DA4000B4DA0100C41800206C21000024BB0100DE
:10DA500000000000000000000000000000000000C6
:10DA600000000000000000000000000000000000B6
:10DA7000000000000090D003000000000000000043
:10DA80000000000000000000000000000000000096
:10DA90000000000000000000000000000000000086
:10DAA0000000000000000000000000000000000076
:04DAB0000000000072
:040000050001B40141
:00000001FF
